:020000040800F2
:1030000000000120FD770008353100083731000845
:10301000393100083B3100083D3100080000000054
:103020000000000000000000000000004131000826
:103030003F3100080000000043310008453100081E
:10304000493100084B3100084D3100084F3100086C
:10305000513100085331000855310008573100083C
:10306000593100085B3100085D31000800000000A4
:103070000000000000000000000000000000000050
:1030800000000000000000006D31000871310008F0
:103090007331000875310008773100087931000874
:1030A0007B3100087D3100087F3100088131000844
:1030B000833100082D3200082F3200083132000819
:1030C0003332000835320008373200083932000840
:1030D0003B3200083D32000841320008433200080C
:1030E00047320008493200084B3200084D320008D0
:1030F0004F320008513200085332000855320008A0
:1031000057320008593200085B3200085D3200086F
:103110005F3200086132000865320008673200083B
:10312000693200086B3200086D3200086F32000807
:103130005FF800007047FEE7FEE7FEE7FEE7704736
:103140007047704701F008BC704770477047704780
:1031500070477047704770477047704770477047B7
:1031600070477047704770477047704700F078B9F4
:103170007047704770477047704770477047704797
:10318000704738B510214FF0804004F049F900280D
:1031900044D010214FF0804004F04DF900F060F968
:1031A0004FF0804004F028F91D4C1E4B2060216830
:1031B0001B884FF08040194489B204F051F8A3886D
:1031C000580701D100F07CF8A388990701D100F0DD
:1031D00087F8A388DA0608D100F07AF801F09AFEA1
:1031E00000F050FF104BC0B29877A588C5F30905D1
:1031F00085B92946102000F05DFF2946082000F01F
:1032000059FF074B9B685B0701D100F031F8A368B9
:103210000133A360A38801339BB2A38038BD00BFF4
:10322000F402002028010020170400207047704796
:1032300070477047704770477047704700F04AB852
:10324000704700F04BB87047704770477047704741
:1032500070477047704770477047704770477047B6
:1032600000F03AB870477047704770477047704732
:1032700008B501F087FB104B83F8320093F8323029
:103280006E2B0E4B04D81A78132A03D8013200E0B3
:1032900000221A701B78142B0CD1FF2001F0D0FDF6
:1032A000162001F0D9FD01F0E3FD18B9BDE8084092
:1032B00001F00CBE08BD00BF17040020020300206F
:1032C000024A13780133DBB2137070478005002087
:1032D00002F086B801F034BD01F08EBC01F0A6BC4E
:1032E00073B50025534C8DF8075023784FF40051E7
:1032F0000133DBB22370504803F01F03237002F048
:10330000D6FD012814BF8DF807508DF807009DF8F1
:1033100007004A4A00F0FF01494E4A4D4A4B002837
:1033200038D111701F22327029705A78CAB15A8868
:10333000013A92B25A80598889B291B95A78013AC1
:10334000D2B25A7040F212425A801A790AB11971F7
:1033500001E001221A715A7802F0FF010AB93A4AD3
:1033600011711B79802139483BB902F0B2FD4FF44D
:103370008071364802F0ADFD06E002F0AAFD4FF480
:103380008071324802F0A7FD30484FF4007102F01E
:10339000A0FD25E00A21597040F2124159802178A0
:1033A00013782A4899424FF0800102D302F091FD30
:1033B00001E002F090FD227833784FF480719A4258
:1033C000224802D302F085FD01E002F084FD22785C
:1033D0002B784FF400719A421C48D8D202F07BFD42
:1033E0001B4B22781B784FF480719A42124802D30B
:1033F00002F06FFD01E002F06EFD164B22781B78A3
:103400004FF400619A420C4802D302F062FD01E0E1
:1034100002F061FD104B22781B784FF480519A42E4
:10342000054802D302F055FD01E002F054FD02B060
:1034300070BD00BF87080020000801407A05002009
:103440007B0500207C0500200203002000100140C5
:103450007D0500207E0500207F05002001F07CBA5C
:1034600001F00EBB7047704708B54FF4614100F0A2
:10347000E7F828B1034B00221A705A801A71012014
:1034800008BD00BF0803002000F0E2B807B5C3B2D2
:10349000C0F307208DF80400C0438DF80230DB43F1
:1034A000FF228DF800208DF8050055220621684680
:1034B0008DF803308DF8012000F0CBF8831F5842BF
:1034C000584103B05DF804FB70B52C4C20780128FE
:1034D00053D02379052B0AD8601DC3F10601184487
:1034E00000F0C6F8431C1EBF2379C0182071227952
:1034F000012A23D9224900230846551E93420BDA9C
:1035000011F8016BFF2E04D1AB4202DA0E78552E72
:1035100001D00133F2E78BB1934205D1591E6518F2
:103520006D79FF2D08D10B461946C51A914203DA71
:10353000465C6E540131F9E7D31A237122790F4B9F
:10354000062A19D15A79FF2A13D19A79552A10D10E
:103550001A7AD979D243D2B291420AD19A7A587A58
:10356000D243D2B2904201BF01EB00210122598027
:103570001A70002363712371207870BD0803002046
:103580000D030020024B00221A705888704700BFBC
:103590000803002001284FF00801034801D102F080
:1035A0009ABC02F096BC00BF000C014038B5224C1A
:1035B0000023A3810225A08970BBFFF7EBFF022047
:1035C00001F0A1F9012001F0A9FA08211B4802F03D
:1035D00082FC0A2001F097F92121012001F0CCFAA8
:1035E0000120212101F0C8FA40F2311001F08BF9DD
:1035F000012001F09DFA58B1012001F099FA00284C
:10360000FAD0012001F0A4FA2128F1D10123A381ED
:10361000013D15F0FF05CED1322001F074F90020F4
:10362000FFF7B8FF022001F06EF90821034802F00D
:1036300052FCA08938BD00BF08030020000C0140E7
:1036400008B54FF46141012000F0DEFE012008BD05
:10365000704770B505460E460446631B9E4205DD65
:1036600014F8011B012001F087FAF6E7002070BD75
:1036700070B5064601200C4601F05AFA90B1354665
:10368000012001F055FA0028FAD0012001F060FA7B
:1036900005F8010BAB1B9C42F2DC012C2046B8BFA5
:1036A000012070BD4FF0FF3070BD0000F8B5164F1F
:1036B0000126164DBC1997F85C31B34222D93878EF
:1036C00001383044C0B22B5C022B0BD1A15B104BF4
:1036D0001728195203D88000043002F0BFF80136D1
:1036E000F6B20CE0BB195B783A18DBB2172882F807
:1036F000013104D88000A15B043002F0AFF801363C
:10370000F6B2D8E7F8BD00BF160300200000002085
:1037100017040020F0B5174E174A3378D15C31B347
:1037200096F85C41D118214411F8021C02291ED0E0
:1037300017460121C8B2844217D95A2B17D87518D9
:1037400002EB430C95F801E09CF85AC01846F4458A
:103750000DD807EB40006D7890F85B000133A8426C
:1037600001F10101DBB2E5D201E00020F0BD08204B
:10377000F0BD00BF160300200000002070B53B4CD8
:1037800094F85D31012B07D094F85E31FE2B6BD09D
:1037900094F81131012B67D994F85F31FF26184353
:1037A00094F8043194F860210233D2B2511CC9B2AA
:1037B000224484F8601182F8616194F86021034426
:1037C000DB43D2B2511CC9B2224484F8601182F8A2
:1037D000616194F86021DBB2D2B2511CC9B284F8A5
:1037E000601194F804112244C9B282F8611194F86E
:1037F00060211E4DD2B2511CC9B284F8601122441E
:10380000022182F8611194F86021D2B2511CC9B230
:10381000224484F8601182F8610194F86021D2B2E8
:10382000511CC9B2224484F8601182F8613194F8C5
:103830006132ABB9012685F8616295F862120C48D5
:10384000CBB29919C9B285F862122B4493F8611171
:1038500003F00FFF324640F22661054803F0AFFE49
:1038600094F86132002BFBD170BD00BF160300201D
:1038700000480040F8B53E4C3E4F002694F85C21CD
:10388000F3B2013A934272DA227813441A2B46D0EB
:1038900012DC182B2DD035DC042B66D194F80551A1
:1038A00000200135B7FBF5F5294600F0ADFD2946AE
:1038B000022000F0A9FD58E0512B3FD010DC1C2B5A
:1038C00053D1B4F81D3103F01F0284F86722C3F30B
:1038D0004412C3F3842384F8682284F8693244E0F4
:1038E000522B3DD0532B40D1B4F85401FFF7CEFDFD
:1038F0003BE094F8190101F039F894F8193184F893
:10390000633232E094F81A01012100F0D3FB94F8FD
:103910001A010021C043C0B200F0CCFB25E0B4F88E
:103920001B3103F01F0284F86422C3F34412C3F373
:10393000842384F8652284F8663216E094F85301F3
:1039400001F07EFA01F094FA18B194F85331FE2B8D
:103950000BD194F8520101F07FFA01F0B7FA04E0BC
:1039600094F853310BB901F0CDFA013686E7F8BD72
:103970001603002080841E002DE9F84FC64C6FF01E
:103980001F0284F81B210322C82384F81C217C22F7
:1039900084F8043184F81E2100231F2284F8643245
:1039A00084F81D3184F8652284F8663284F8673221
:1039B00084F8683284F86922FFF7F8FD2646274626
:1039C000A046A4F8590100221346104694F85E510F
:1039D00084F86A0294F86BE294F86C128E4508D170
:1039E00096F86A126429F5D9002AECD088F85E515D
:1039F000E9E797F86B22D2B2511CC9B287F86B1273
:103A00003A4492F86D52EDB2FF2D03D10133DBB28F
:103A10000122DDE7012B01D80023F9E798F80431F2
:103A200088F85E519D4201D0FE2DCCD1002384F850
:103A30006A3294F86B2294F86C329A4204D196F868
:103A40006A32642BF5D9BEE797F86B32DBB25A1CA9
:103A5000D2B287F86B223B4493F86D325FFA83F958
:103A6000A9F10201C9B2002387F85C1187F86A3214
:103A700094F86B2294F86C329A4204D196F86A3228
:103A8000642BF5D99FE797F86B32DBB25A1CD2B2A0
:103A900087F86B223B4493F86D22D2B287F85D2100
:103AA0004A44154400221046EDB25FFA82FE714589
:103AB00020DB84F86A0294F86BC294F86C329C455F
:103AC00004D196F86A32642BF5D97CE797F86B320B
:103AD000BE44DBB203F1010C5FFA8CFC87F86BC2C9
:103AE0003B4493F86D320132DBB21D448EF8013055
:103AF000EDB2DAE763784FF0000A237094F80621FC
:103B00005FFA8AF393420AF1010A03D2022000F01D
:103B100010FFF3E7FF2D97F85D2109D097F86B327E
:103B2000012ADBB287F86C323FF44DAF10209BE2E4
:103B3000922A40F0B580002387F86D3387F86E3302
:103B40000223A9F10302934280F2AA80E21851787D
:103B500094F80421914240F0998096F80421FF2DB9
:103B600086F85E214FF0020286F85D2103F1010222
:103B700003F1FF333244334452785B783270DBB266
:103B8000B37000F08B800020002384F86A0294F860
:103B90006E1394F86D23914204D196F86A22642A38
:103BA000F5D910E797F86D23D2B2511CC9B287F846
:103BB0006D133A4492F86F23D2B2FF2A02D1013337
:103BC000DBB2E2E7012B4FF00003DED99542DBD1F7
:103BD000314A82F86A3294F86E2394F86D339A422F
:103BE00004D196F86A32642BF5D9ECE697F86D3378
:103BF000DBB25A1CD2B287F86D233B4493F86F2393
:103C00000023023AD2B287F86A3294F86E1394F81D
:103C10006D33994204D196F86A32642BF5D9D2E615
:103C20000020054697F86D33DBB2591CC9B287F8FE
:103C30006D133B4493F86F33C3B29A4218DB86F896
:103C40006A5296F86E1396F86D33994204D196F83D
:103C50006A32642BF5D9B6E697F86D330130DBB2E2
:103C6000591CC9B287F86D133B4493F86F33E3E7EF
:103C7000002597F80621EBB2934205F1010503D226
:103C8000022000F056FEF4E74FF00409E2185578E0
:103C90000333EDB2DBB254E7160300204FF0040902
:103CA00094F85D5105F17D03DBB2012B29D8B17881
:103CB0000222C9B2A9F10303481C9A4221DA04EB9B
:103CC000020E9EF801C094F804E1F44516D10123D8
:103CD000D0188B42C0B209D82044407804EB030EC0
:103CE000C0B201338EF80100DBB2F1E705F07F05C9
:103CF000013184F85D5184F85C1102E00244D2B2D3
:103D0000DBE794F85D31032B0CD1FFF703FD05468B
:103D1000FFF734FD082D3FF456AEFFF7C7FCFFF761
:103D2000A9FD50E6022B40F0688196F85E31FE2B2B
:103D30003FF449AE96F81131002B3FF444AE96F8AB
:103D40000290B17896F8045196F860310231DBB2F6
:103D500003F1010E5FFA8EFE86F860E133444FF006
:103D6000FF0E83F861E196F86031C9B2DBB203F16E
:103D7000010C5FFA8CFC334486F860C183F861E182
:103D800096F8603196F85F01DBB203F1010C5FFA3F
:103D90008CFC86F860C196F804C133445FFA8CFC51
:103DA00083F861C196F8603196F800A0DBB203F1A8
:103DB000010C5FFA8CFC334486F860C183F8611112
:103DC00096F860310544DBB203F1010C5FFA8CFC1C
:103DD000334486F860C183F8610196F86F340D446E
:103DE000DBB203F1010C5FFA8CFC334486F86FC43C
:103DF00083F870E496F86F34D144DBB203F1010C20
:103E00005FFA8CFC334486F86FC483F870E496F84C
:103E10006F3409F1FF39DBB203F1010E5FFA8EFE58
:103E200086F86FE496F804E133445FFA8EFE83F877
:103E300070E496F86F34DFF848B2DBB203F1010E9C
:103E40005FFA8EFE334486F86FE483F8701496F8B8
:103E50006F345FFA89F9DBB2591CC9B2334486F872
:103E60006F14EDB283F87004CA4572D8BAF1570FD7
:103E700005D1FFF729FBC0B284F8580106E0BAF17A
:103E8000550F03D1FFF77EFBA4F85601784B13F8CA
:103E90000A30022B3DD1CA453BD294F860113BF861
:103EA0000A30C9B201F1010ED8B25FFA8EFE214488
:103EB00084F860E181F8610194F86F141B0AC9B2BB
:103EC00001F1010E5FFA8EFE214484F86FE481F85F
:103ED000700494F860110AF10102C9B201F1010EF7
:103EE0005FFA8EFE214484F860E181F8613194F834
:103EF0006F145FFA82FAC9B201F1010E5FFA8EFE09
:103F0000214484F86FE481F8703403441D44EDB219
:103F10001AE004EB0A0393F8013194F86011DBB264
:103F2000C9B2481CC0B2214484F8600181F86131F3
:103F300094F86F141D44C9B2481CC0B2214484F8DF
:103F40006F04EDB281F870340AF101025FFA82FA6F
:103F50008AE7EB4394F86021DBB2D2B2511CC9B2BC
:103F6000224484F8601182F8613194F86F24D2B24F
:103F7000511CC9B2224484F86F1482F8703494F84A
:103F80006132ABB9012586F8615296F86232394840
:103F9000DBB25919C9B286F86212334493F8611141
:103FA00003F067FB2A4640F22661324803F007FB24
:103FB0001021314801F084FFD0B920212E4801F0B2
:103FC0008AFF10212C4801F084FF94F870352B48AB
:103FD000DBB25A1CD2B284F87025234493F87014D3
:103FE00003F047FB012240F22661244803F0E7FA80
:103FF00094F86132002BFBD1E5E40D2B1ED1F37850
:10400000F02B7FF4E0AC3379552B7FF4DCAC737983
:104010000F2B7FF4D8ACB379AA2B7FF4D4AC96F8ED
:104020005C31062B7FF4CFAC307859283FF6CBAC0F
:104030008000B178043001F011FCC4E4012B09D1F7
:1040400096F85E31FE2B03D196F8040100F05BFC7C
:10405000002009E0063B012B05D80020FFF78EFB6E
:1040600002F082F8AFE44020FFF788FBABE400BF2A
:104070000000002000480040000C014000380140D2
:104080001704002010B54FF48041094801F00FFFDC
:104090004FF4004110F1FF34054818BF012401F02E
:1040A00006FF01281CBF44F00204E4B2204610BD04
:1040B0000008014001292DE9F04100F0010300F062
:1040C000020800F0040700F0080600F0100500F0F8
:1040D000400426D123B14FF40041264801F0FBFEF5
:1040E000B8F1000F04D04FF48051234801F0F3FEE3
:1040F0001FB140211F4801F0EEFE26B14FF40051E0
:104100001C4801F0E8FE25B14FF48041194801F048
:10411000E2FE6CB3BDE8F0414FF48071174801F046
:10412000DABE23B14FF40041124801F0D2FEB8F1DB
:10413000000F04D04FF480510F4801F0CAFE1FB1A8
:1041400040210C4801F0C5FE26B14FF4005109484A
:1041500001F0BFFE25B14FF48041064801F0B9FEE1
:1041600034B1BDE8F0414FF48071044801F0B1BEB4
:10417000BDE8F08100100140000C01400008014042
:10418000012808B502D14FF4004112E0022803D102
:104190004FF480510F4813E0042801D1402108E07A
:1041A000082802D14FF4005103E0102803D14FF446
:1041B0008041094804E0402809D108484FF4807143
:1041C00001F07EFE10F1FF3018BF012008BD002075
:1041D00008BD00BF000C0140001001400008014074
:1041E00010B50446E3074FF080010F4802D501F0F7
:1041F00072FE01E001F06DFEA2074FF480710A48E3
:1042000002D501F068FE01E001F063FE63074FF4A0
:104210000071054803D5BDE8104001F05CBEBDE863
:10422000104001F056BE00BF0010014070B50B4DAC
:104230008021284601F044FE4FF480710446284650
:1042400001F03EFE4FF400710646284601F038FEAC
:10425000800040EA46002043C0B270BD001001401B
:1042600070B588B01E4C01A802F097FD04A802F0BA
:104270009DFD204602F004FC47230025ADF80430E4
:1042800001A94FF4FA632046ADF80830ADF80650A6
:10429000ADF80A508DF80C5002F05CFC6023ADF8CC
:1042A0001030BDF808300126F340ADF8163004A9EF
:1042B00002232046ADF81830ADF81260ADF8145066
:1042C00002F026FD2946204602F0A2FE3146204695
:1042D00002F087FD3146204602F08FFD08B070BD28
:1042E0000008004010B588B001A802F056FD04A8EF
:1042F00002F05CFD4FF0804002F0C2FB4FF6FF730E
:10430000002401A94FF08040ADF80830ADF804401A
:10431000ADF80A40ADF8064002F01CFC012240F264
:10432000D2214FF0804002F0D4FD104B04A91B882D
:104330004FF08040ADF81630ADF81040ADF81240A7
:10434000ADF8184002F0E4FC21464FF0804002F046
:104350005FFE012210214FF0804002F06BFD012131
:104360004FF0804002F03DFD08B010BD2801002054
:1043700008B542F2283002F013FBBDE808400120E6
:1043800002F028BB10B502F003F84FF4803002F0C1
:104390001DF802F06BF9012804460DD0012146F604
:1043A0003D6002F00DF91748012102F015F9BDE852
:1043B0001040012001F095BF102001F095FA022075
:1043C00001F07AFA002002F04FF8002002F060F8C5
:1043D0004FF4806002F052F84FF480304FF4E01157
:1043E00002F020F8204602F027F8392002F02AF9DE
:1043F0000028FAD0022002F025F802F02DF8082853
:10440000FBD1CBE70F40141830B50D46044685B0FC
:10441000684603F0A7F80023ADF80430ADF8063085
:10442000ADF80830ADF80C300C230095ADF80A302B
:104430008CB91E4B1E485D6003F002F869461C48AB
:1044400003F04CF840F225511948012203F0B7F867
:104450000121174826E0012C11D1144B15489D600D
:1044600002F0EEFF6946134803F038F840F2255198
:104470001048224603F0A3F821460E4812E0022C11
:1044800012D10A4B0C48DD6002F0DAFF69460A4897
:1044900003F024F840F225510748012203F08FF879
:1044A0000548012103F07FF805B030BD2801002048
:1044B00000380140005000400048004010B9074B50
:1044C00058687047012802D1044B98687047022849
:1044D00006BF024BD8680020704700BF28010020AB
:1044E00030B587B001A801F03DF8012400254FF454
:1044F000602301A92C48039301958DF808508DF88D
:10450000094004958DF8144001F008F801A92748E6
:1045100001F004F8072322460A21234801F076F827
:104520002A464FF40871204801F037F80723224645
:1045300004211E4801F06AF82A464FF408711B480E
:1045400001F02BF82146184801F015F817482146CC
:1045500001F011F8144801F029F8134801F02BF884
:104560000028FAD1114801F021F8104801F023F891
:104570000028FAD10C4801F022F80B4801F024F889
:104580000028FAD1094801F01AF8084801F01CF88F
:104590000028FAD10121044801F01AF8012103484A
:1045A00001F016F807B030BD00240140002801409A
:1045B00030B5194C87B020464FF4006101F089FCFA
:1045C00020464FF4806101F084FC4FF48272ADF814
:1045D000062002220023ADF80A20A4F558444FF427
:1045E0000072ADF80430ADF808300125ADF80E20AA
:1045F000ADF812300822072301A92046ADF810209B
:10460000ADF81430ADF80C5002F090F82946204671
:1046100002F010F907B030BD001001402DE9F7435A
:104620005C4D01A801F03BFC03244FF010094FF44E
:10463000C85301A92846ADF804308DF806408DF81E
:10464000079001F0DAFB4FF400530426ADF8043074
:1046500001A9282328468DF8073001F0CEFB4FF43E
:1046600080630DEB060128460027ADF804308DF875
:10467000076001F0C2FBFF230DEB060128464FF057
:104680001808ADF804308DF8077001F0B6FB4FF450
:1046900000730DEB06012846ADF804308DF8064096
:1046A0008DF8078001F0A9FB4FF44043ADF80430CA
:1046B0000DEB0601482328468DF8073001F09DFBDD
:1046C00041F23C1305F580650DEB06012846ADF877
:1046D00004308DF806408DF8079001F08EFB4FF402
:1046E00008630DEB06012846ADF804308DF807602D
:1046F00001F083FB4EF240630DEB06012846ADF856
:1047000004308DF806408DF8078001F076FB0DEB44
:1047100006012846ADF804408DF8077001F06DFBE6
:104720004EF6C07305F580650DEB06012846ADF821
:1047300004308DF806408DF8079001F05EFB4FF4D1
:1047400080530DEB06012846ADF804308DF8064085
:104750008DF8078001F051FB3F230DEB0601284641
:10476000ADF804308DF8077001F047FB0DEB060142
:104770000948ADF804608DF8076001F03EFB304653
:10478000012101F0CDFB0121044801F0C9FB03B078
:10479000BDE8F0830008014000140140000430002F
:1047A00037B54FF440514FF0006001F0D3FC4FF4A7
:1047B000C06001F027FC01240025252301A88DF805
:1047C00004308DF805508DF806408DF8074001F053
:1047D00023FC35238DF8043001A802238DF8063020
:1047E0008DF805508DF8074001F016FC27238DF851
:1047F000043001A803238DF806308DF805508DF89C
:10480000074001F009FC1C2301A88DF804308DF845
:1048100005408DF806508DF8074001F0FDFB03B010
:1048200030BD10B51E4C02F0D6FFFFF7ABFDFFF711
:10483000B7FFFFF7F3FE01F063F861680020FFF7B0
:10484000E3FD0020FEF710FEE168164C0220FFF7A2
:10485000DBFDFFF745FEFFF78BFDFFF743FDFFF79D
:10486000A7FEFFF7FDFC2046102101F034FB204697
:10487000202104F5806401F02CFB20464FF4806178
:1048800001F027FB20464FF4006101F022FB02F00B
:10489000A4FF00F0A5FCBDE8104000F021BD00BF62
:1048A00028010020000C014010B57B2001F0CAFE59
:1048B00001281BD07A2001F0C5FE012818D07C20E9
:1048C00001F0C0FE012815D07D2001F0BBFE0128BB
:1048D00012D07E2001F0B6FE01280FD07F2001F01B
:1048E000B1FE012814BF0024062408E0022406E0DB
:1048F000044604E0032402E0042400E0052401F05F
:10490000CCFE204610BD10B50446012002F04EF842
:10491000064B1C601C68002CFCD16FF0010002F0FB
:1049200045F82046BDE8104002F040B8900B00204A
:104930007047084B2D215A6801FB0020002182425C
:1049400002D02D320121FAE701B15A605A689A600B
:10495000704700BF900B0020034B1A6812B11A6811
:10496000013A1A60704700BF900B002001284FF4F5
:104970008071034801D101F0ACBA01F0ACBA00BFBC
:10498000000C014008B5002000F072F8024BC0F3A3
:104990000F10185C08BD00BF3E010020400000F170
:1049A000006000F5FE2000887047F0B5440004F177
:1049B000006404F5FE242388ADF20C4D8B420F46B3
:1049C0003CD0B0F5007F39D2002302AE5A0002F18C
:1049D000006202F5FE22128826F813200133B3F597
:1049E000007FF3D126F8107000F08AFF352000F028
:1049F000D3FF27B14FF6FF752388AB4206D1394666
:104A0000204601F099F88DF8070015E00D4800F0F8
:104A1000F9FF0C4C0C4F8DF8070004F17843A3F517
:104A2000FE23F15AA94204D0204601F085F88DF802
:104A300007000234BC42F0D100F06EFF0DF20C4DC5
:104A4000F0BD00BF00F0070800F4070807B500F04C
:104A500057FF352000F0A0FF044800F0D3FF8DF889
:104A6000070000F059FF03B05DF804FB00F00708F1
:104A7000024B33F8100080B2704700BF9C0B00203F
:104A800070B5214C214894F8205000F00FFEEDB293
:104A900024F815001E4894F8205000F007FE083551
:104AA00024F8150094F820300133DBB284F820306C
:104AB00094F82030082B18D094F82030154DDBB234
:104AC00055F8231001220723C9B2104800F09EFDBB
:104AD00094F820300122083355F823100C4807239E
:104AE000C9B2BDE8704000F091BD00230A4884F8C7
:104AF00020305A00013334F813103332C1F38D01E2
:104B00000F2B1152F5D1D7E79C0B00200024014058
:104B1000002801404002002017040020012801BFA6
:104B2000024B00221A805A80704700BFBE0B002043
:104B3000012808D1054A508883B2108880B2181A1B
:104B400018BF01207047FF20704700BFBE0B002038
:104B500001280CD1074B5A88013292B25A805A88E8
:104B6000C2F3090203EB42039888C0B27047FF20EA
:104B7000704700BFBE0B002010B50C46D8B92021ED
:104B8000194801F0A8F91021174801F0A2F92146AF
:104B9000164802F06EFD4021144802F0C5FD0028C1
:104BA000F9D01021104801F096F9BDE810402021FD
:104BB0000D4801F08EB9012809D10D4802F059FDC8
:104BC00040210B4802F0B0FD0028F9D010BD0228AA
:104BD00008D1084802F04DFD4021064802F0A4FD2E
:104BE0000028F9D010BD00BF000C01400038014082
:104BF000005000400048004008B540F225510948E7
:104C000002F09CFD60B1074802F037FD064A1388A8
:104C100001339BB21380C3F3090302EB4303988073
:104C200008BD00BF00500040BE0B0020F8B540F2A8
:104C30002551354802F082FD0446002840D0324814
:104C400002F01BFD044601210820FFF733FA2F4D27
:104C50002F49304AE0B213782E780F782E4CFFB2ED
:104C6000E0552E4CF6B2A0552D4CDBB2E0542B781B
:104C70002C480133DBB22B700B780133DBB20B70A5
:104C8000137810210133DBB2137001F019F90028F9
:104C900038D12021234801F01EF91021214801F0CC
:104CA00018F9214921480B78DBB25A1CD2B20A709C
:104CB000E15C02F0DEFC012240F226611B481DE0AF
:104CC00040F22661104802F039FDD8B1184A194B5C
:104CD00011781B7899420BD013780B48DBB2591C22
:104CE000C9B21170144AD15CBDE8F84002F0C1BCF1
:104CF000224640F22661114B03481C70BDE8F84083
:104D000002F05DBCF8BD00BF0048004082050020F5
:104D10008D090020850700208E09002083050020D2
:104D200086070020000C0140860800200038014062
:104D30007805002076040020770400207705002005
:104D400070B540F22551314802F0F8FC04460028C5
:104D500033D02E4802F091FC2D4A2E4913780C785E
:104D60002D4D2E4EDBB2C0B2E4B22855F0540B7874
:104D70000133DBB20B7013780133DBB21370284BB5
:104D80001A78002A41D101221A70264B264C1D7830
:104D9000954209D123782548DBB2F15C02F069FC29
:104DA00029461020FFF786F9237801220133DBB270
:104DB000237040F226611D4823E040F2266113482B
:104DC00002F0BCFC08B31A4A1A4B11781B789942BE
:104DD0000BD013780D48DBB2591CC9B21170164ABA
:104DE000BDE87040D15C02F044BC1021134801F0D2
:104DF00072F82021114801F06CF8224640F2266139
:104E00000248BDE8704002F0DABB70BD00380140D6
:104E10007604002084060020850600207704002008
:104E20007705002079050020780500200048004023
:104E3000860800208507002086070020000C01401E
:104E4000014B1870704700BFC2130020014B187847
:104E5000704700BFC2130020014B5870704700BF5D
:104E6000C2130020014B5878704700BFC2130020C6
:104E7000044B5A8822B99888003018BF0120704727
:104E800001207047C2130020332828BF3320322965
:104E900003D8002908BF032100E03221044B01EBB5
:104EA000810101EB81010122D88019819A8070472C
:104EB000C2130020044B5A882AB919289FBF9A812F
:104EC000012258815A807047C2130020044B197880
:104ED0005878FF2901D1FFF7EDBFFFF7D5BF00BF1D
:104EE000C213002038B50546054C0146204602F0A5
:104EF000AFF969082046BDE8384002F0B1B900BFFB
:104F000000080040024B002098805880FFF7EABF5D
:104F1000C21300203D4AF8B59188134651B110895B
:104F200008B990806CE001381081394BD28833F891
:104F3000120065E05188002966D0D189002955D139
:104F40009289344F3AB95A89012157F82220998120
:104F50001288A7F868205A89998957F822202B4C83
:104F600032F81100DFF8ACE0C0F3C31600F01F0206
:104F700018825E829A8210B9A081608040E000F0C1
:104F80002005ADB265B1400648BF52422283B7F852
:104F90006820012556430131E582DE819981F8BD03
:104FA0001E2AE58206D1BEF8683001315E43A18138
:104FB000E681F8BD638B012B15D1BEF8683065839F
:104FC0005E43134DE68105EB4202B2F86800FFF73D
:104FD00089FFA38A05EB4305B5F86830A383A3894D
:104FE0000133A381F8BD01236383F8BDD38A01395E
:104FF000012BD18108D1908B138B184480B2908300
:10500000BDE8F840FFF76EBFF8BD00BFC213002037
:10501000C478000880020020044AC0B21378DBB2D2
:10502000591CC9B21344117058707047E013002026
:10503000014B00221A707047E0130020F0B5424B7C
:10504000DE789A78997902EB06265A79587A02EB3B
:1050500001211A7A1C7B02EB0022D87ADD7B00EB5F
:105060000424987B9F7C00EB05205D7C36B205EB29
:10507000072540279E8296FBF7F6042706EB860657
:1050800096FBF7F606F50076B6F5806FA8BF40F2FE
:10509000FF362E4FB8BF26EAE676B6B209B212B294
:1050A00024B200B22DB2D9821A835C839883DD8347
:1050B0001E847E85402691FBF6F1042601EB8101DA
:1050C00091FBF6F101F50071B1F5806FACBF40F2D4
:1050D000FF3121EAE17189B259843985402192FB7F
:1050E000F1F2042102EB820292FBF1F202F500726E
:1050F000B2F5806FACBF40F2FF3222EAE27292B2A8
:105100009A84FA84402294FBF2F490FBF2F040F28D
:10511000FF31C4F50074C0F5007095FBF2F5B4F5ED
:10512000806F08BF0C46B0F5806F08BF084605F5D4
:105130000075A4B280B2ADB2DC84BC851885F88558
:105140005D853D86F0BD00BFE01300201704002000
:10515000014B188C704700BFE0130020014B588CA6
:10516000704700BFE0130020014B988C704700BFD0
:10517000E0130020014BD88C704700BFE0130020E3
:10518000014B188D704700BFE0130020014B588D74
:10519000704700BFE0130020014BB3F914007047C3
:1051A000E0130020014BB3F916007047E013002014
:1051B000014BB3F918007047E0130020014BB3F91D
:1051C0001A007047E0130020014BB3F91C00704730
:1051D000E0130020014BB3F91E007047E0130020DC
:1051E00008B502213B4801F0A8FB0028F9D04FF494
:1051F0000061394800F06FFE2021364801F049FB7C
:105200000221344801F099FB0028F9D001213148EE
:1052100001F093FB0028F9D02E4801F03CFBFFF78A
:10522000FBFEFF212B4801F034FB0221294801F04D
:1052300084FB0028F9D00121264801F07EFB0028DC
:10524000F9D0244801F027FBFFF7E6FE4FF4006198
:10525000214800F03EFE02211E4801F06EFB0028AE
:10526000F9D04FF400611C4800F035FE23211948A5
:1052700001F00FFB0221174801F05FFB0028F9D075
:105280000121144801F059FB0028F9D0114801F020
:1052900002FBFFF7C1FE20210E4801F0FAFA0221BD
:1052A0000C4801F04AFB0028F9D00121094801F01F
:1052B00044FB0028F9D0074801F0EDFAFFF7ACFEF7
:1052C0004FF40061044800F004FE044B00221A7001
:1052D00008BD00BF0038004000100140E01300206E
:1052E00008B502213B4801F028FB0028F9D04FF413
:1052F0008061394800F0EFFD2021364801F0C9FAFD
:105300000221344801F019FB0028F9D0012131486D
:1053100001F013FB0028F9D02E4801F0BCFAFFF78A
:105320007BFE3F212B4801F0B4FA0221294801F00D
:1053300004FB0028F9D00121264801F0FEFA0028DC
:10534000F9D0244801F0A7FAFFF766FE4FF4806118
:10535000214800F0BEFD02211E4801F0EEFA0028AF
:10536000F9D04FF480611C4800F0B5FD23211948A5
:1053700001F08FFA0221174801F0DFFA0028F9D076
:105380000121144801F0D9FA0028F9D0114801F0A0
:1053900082FAFFF741FE10210E4801F07AFA02214D
:1053A0000C4801F0CAFA0028F9D00121094801F09F
:1053B000C4FA0028F9D0074801F06DFAFFF72CFE77
:1053C0004FF48061044800F084FD044B00221A7001
:1053D00008BD00BF0038004000100140E01300206D
:1053E00038B500240221324801F0A7FA0028F9D08C
:1053F000304D4FF40061304800F06DFD295D2C48C0
:1054000001F047FA02212A4801F097FA0028F9D062
:105410000121274801F091FA0028F9D0244801F031
:105420003AFAFFF7F9FD0134032394FBF3F303EB9E
:1054300043039C4204D14FF400611F4800F049FD32
:10544000092CCFD100240221194801F076FA002856
:10545000F9D04FF48061184800F03DFD295D1448F3
:1054600001F017FA0221124801F067FA0028F9D07A
:1054700001210F4801F061FA0028F9D00C4801F031
:105480000AFAFFF7C9FD0134032394FBF3F303EB9E
:1054900043039C4204D14FF48061074800F019FD9A
:1054A000092CD0D1FFF7CAFD044B00221A7038BD79
:1054B00000380040EA02002000100140E013002004
:1054C00008B5154B984210D003F5A053984215D05B
:1054D000A3F5C05398421DD101214FF4007001F093
:1054E00087F800214FF4007010E001214FF4806034
:1054F00001F07EF800214FF4806007E001214FF4B5
:10550000004001F075F800214FF40040BDE808406C
:1055100001F06EB808BD00BF00280140436810B517
:1055200023F470220B6822F4807213430A7943EA51
:1055300002234360CA688B6884681A43084B23407F
:1055400013434A7943EA42038360C36A23F4700237
:105550000B7C013BDBB242EA0353C36210BD00BFC8
:10556000FDF7F1FF00230360037143718360C360A3
:10557000012303747047836811B143F0010301E014
:1055800023F0010383607047836811B143F4807393
:1055900001E023F4807383607047C9B243680AB1A5
:1055A000194301E023EA010141607047836843F039
:1055B0000803836070478068C0F3C0007047836849
:1055C00043F00403836070478068C0F38000704735
:1055D000836811B143F4A00301E023F4A0038360C6
:1055E00070478068C0F3805070474368013923F4E6
:1055F000604343EA413343607047436811B143F469
:10560000006301E023F4006343607047092970B52B
:105610000DD9A1F10A04C66804EB44040725A5408E
:1056200026EA050503FA04F42C43C4600AE006697F
:1056300001EB41040725A54026EA050503FA04F419
:105640002C430461062A0CD8013A446B02EB820217
:105650001F23934024EA030301FA02F21A43426330
:1056600070BD0C2A0CD8073A046B02EB82021F2390
:10567000934024EA030301FA02F21A43026370BD65
:105680000D3AC46A02EB82021F23934024EA03030B
:1056900001FA02F21A43C26270BD836811B143F489
:1056A000801301E023F4801383607047C06C80B2E4
:1056B0007047014B186870474C240140436811B192
:1056C00043F4806301E023F48063436070474368E0
:1056D00011B143F4805301E023F4805343607047D9
:1056E000836823F4E043194381607047836811B1F4
:1056F00043F4004301E023F4004383607047836870
:1057000011B143F4021301E023F4021383607047E4
:105710008068C0F340507047092970B50DD9A1F1D8
:105720000A04C66804EB44040725A54026EA0505DB
:1057300003FA04F42C43C4600AE0066901EB410457
:105740000725A54026EA050503FA04F42C43046165
:10575000836B0232C3F30154121BD2B202EB8202FA
:105760001F24944023EA040391401943816370BDD0
:10577000836B013923F4401343EA01538363704779
:10578000425070472831405880B27047436823F434
:10579000400323F400731943416070474162826201
:1057A0007047436823F01F03194341607047054B5E
:1057B0009A6810B142F4000201E022F400029A60FB
:1057C000704700BF002401400368194214BF012044
:1057D00000207047C943016070474368006810EAC1
:1057E000112004D0C9B2194214BF01200020704713
:1057F0006FEA11210160704708B5012000F010FF29
:10580000BDE80840002000F00BBF014B1860704756
:1058100004860D42014B1860704700BF00860D42A0
:10582000014B1860704700BF88860D42044A938D73
:1058300023F460731B041B0C18439085704700BF52
:10584000006C0040044A938D23F07F031B041B0C63
:1058500018439085704700BF006C004000F1804005
:1058600000F5D8400180704700F1804000F5D84035
:10587000008880B27047024B1868C0B2704700BF02
:10588000A0860D42034A938E9BB243F00103938698
:10589000704700BF006C0040014B1868C0B27047F1
:1058A000A4860D42034A938E9BB243F00203938673
:1058B000704700BF006C0040044B1A6802F03802C9
:1058C0001A601A6810431860704700BF0020024039
:1058D000044B1A6822F008021A601A681043186014
:1058E000704700BF00200240044B1A6822F01002EB
:1058F0001A601A6810431860704700BF0020024009
:10590000034B044A5A6002F188325A60704700BF64
:105910000020024023016745024A136943F08003D7
:105920001361704700200240014BD869800870471E
:1059300000200240014B186A704700BF002002405F
:10594000024BD869C0F34000704700BF00200240FE
:10595000024B1868C0F34010704700BF002002409F
:10596000044B1A6909B1104301E022EA00001861F2
:10597000704700BF002002400128064B03D1D869C0
:1059800000F001007047DB68184214BF01200020BE
:10599000704700BF00200240014BD860704700BF35
:1059A00000200240084BDA68D10709D4DA685207B0
:1059B00008D4DB6813F0100F14BF032004207047D5
:1059C00001207047022070470020024073B5044652
:1059D000FFF7E8FF0025FF2601280ED15CB10195F5
:1059E0000196019B1BB1019B013B0193F9E7FFF776
:1059F000D9FF013CF0E7052002E0002C08BF05209C
:105A000002B070BD38B5054640F6FF70FFF7DEFF07
:105A1000042814D10A4C40F6FF70236943F00203B6
:105A200023616561236943F040032361FFF7CEFFE3
:105A300001281FBF41F6FD7322691340236138BD61
:105A40000020024010B540F6FF70FFF7BFFF0428AA
:105A500013D10A4C40F6FF70236943F0040323611D
:105A6000236943F040032361FFF7B0FF01281FBF04
:105A700041F6FB7322691340236110BD00200240F0
:105A800010B540F6FF70FFF7A1FF042829D1154C8F
:105A9000154B40F6FF70A36003F18833A3602369C0
:105AA00043F020032361236943F040032361FFF7A0
:105AB0008DFF04280ED141F6DF7322690F201340B9
:105AC00023612369A52243F010032361074B1A8049
:105AD000FFF77CFF01281FBF41F6EF7322691340D7
:105AE000236110BD002002402301674500F8FF1F1D
:105AF00070B506460F200D46FFF768FF042817D142
:105B00000C4C0F20236943F001032361ABB23380B7
:105B1000FFF75CFF042804D12D0C75800F20FFF7E0
:105B200055FF01281FBF41F6FE7322691340236110
:105B300070BD00BF0020024070B505460F200E4624
:105B4000FFF744FF04280FD1084C0F20236943F0CE
:105B5000010323612E80FFF739FF01281FBF41F6A3
:105B6000FE7322691340236170BD00BF0020024014
:105B700070B506460F200D46FFF728FF042815D103
:105B80000B4C0C4BADB2A36003F18833A3602369C7
:105B90000F2043F0100323613580FFF717FF012822
:105BA0001FBF41F6EF7322691340236170BD00BF30
:105BB000002002402301674510B504460F20FFF77F
:105BC00005FF04283FD1E4431F4B204AE1B29A600D
:105BD00002F188329A601A69FF2942F010021A61B4
:105BE00004D1C4F30723FF2B08D10EE0184B0F207C
:105BF0001981FFF7EBFE04281DD1F2E7144A0F20AC
:105C00005381FFF7E3FE042815D1C4F30743FF2BAC
:105C100006D00F4A0F209381FFF7D8FE04280AD13F
:105C2000240EFF2C01D1042007E0094BA4B2DC8133
:105C30000F20FFF7CBFE012805D041F6EF73024A93
:105C400011690B40136110BD00200240230167451C
:105C500000F8FF1F38B5054640F6FF70FFF7B6FEA7
:105C6000042836D11B4C1C4B40F6FF70A36003F197
:105C70008833A360236943F020032361236943F041
:105C800040032361FFF7A2FE04281BD141F6DF7316
:105C9000226913402361236943F0100323610F4BF2
:105CA0000DB1002200E0A5221A8040F6FF70FFF738
:105CB0008DFE01280DD041F6EF73064A11690B40A5
:105CC000136138BD01281FBF41F6DF7322691340FD
:105CD000236138BD002002402301674500F8FF1F03
:105CE000F8B5114D114B0646AB6003F18833AB603C
:105CF0000F200F461446FFF769FE042813D12B69C5
:105D000044F0F80043F010032B613843084B304354
:105D100058800F20FFF75AFE01281FBF41F6EF738E
:105D20002A6913402B61F8BD00200240230167451A
:105D300000F8FF1F08B5294B984233D012D8A3F5BD
:105D40000063984220D003F58063984223D0A3F5E6
:105D50000063984240D10121042000F049FC002159
:105D6000042035E01E4B984223D003F5806398420F
:105D700026D0A3F5006398422ED10121402000F0E7
:105D800037FC0021402023E00121082000F030FCF6
:105D9000002108201CE00121102000F029FC002136
:105DA000102015E00121202000F022FC00212020FD
:105DB0000EE00121802000F01BFC0021802007E084
:105DC00001214FF4807000F013FC00214FF480702B
:105DD000BDE8084000F00CBC08BD00BF0014014045
:105DE000001C014008B50121084600F001FCBDE897
:105DF00008400021012000F0FBBBCA782DE9F041EA
:105E0000D40648BF8C780E8802F00F0348BF2343A6
:105E100016F0FF0F1ED0016800244FF0010E4FF066
:105E20000F0C0EFA04F737EA06050FD1A5000CFA9D
:105E300005F821EA080103FA05F5282A41EA0501D7
:105E400001D1476102E0482A08BF07610134082CEC
:105E5000E7D10160FF2E20D9416800244FF0010EE8
:105E60004FF00F0C04F108050EFA05F535EA0607A8
:105E70000FD1A7000CFA07F821EA080103FA07F787
:105E8000282A41EA070101D1456102E0482A08BFFA
:105E900005610134082CE5D14160BDE8F0814FF681
:105EA000FF730380022383700423C37070478368E9
:105EB000194214BF012000207047806880B27047EB
:105EC000C368194214BF012000207047C06880B227
:105ED000704701617047416170470AB101617047C5
:105EE00041617047C160704741F4803383618161D3
:105EF0008361836983697047054A136823F07F03D0
:105F00001B041B0C194341EA00101060704700BFCE
:105F100000000140014B1860704700BF1C00204288
:105F200030B5134A00F44015B5F5401F536884B2EC
:105F300006D1556823F0706325F0706555600EE05A
:105F4000C20255BF420D03221201C0F303454CBFEC
:105F5000AA4004FA02F223EA020343F0706321B17B
:105F6000400D000104FA00F00343014A536030BDC4
:105F70000000014001F0030301F0FC0101F1804148
:105F800001F5803110B59B008C680F229A4024EAFD
:105F900002028A608A6898401043886010BD00BF82
:105FA0000B4B6FF070424FF0FF31C3F88010C3F815
:105FB0008420C3F88011C3F884210022104602F126
:105FC000C00101320F2A43F82100F8D1704700BF09
:105FD00000E100E0094B4FF0206209495A600022BD
:105FE0009A60D9601A615A619A61DA611A625A62DA
:105FF0004FF0FF329A62DA621A63704700ED00E0F8
:106000000000FA0540F0BF60024B40F40030D86059
:10601000704700BF00ED00E0C27830B503786AB386
:106020001C4AD1684278C943C1F30221C1F104047A
:1060300002FA04F40F22CA4081780A4003F00301F7
:1060400003F0FC0303F1604303F561432243CD00F9
:10605000D3F800431201AA40FF21A94062400A4040
:106060006240C3F8002303780122590903F01F039B
:1060700002FA03F3084A42F8213030BD5A090121DF
:1060800003F01F0301FA03F30349203241F82230E1
:1060900030BD00BF00ED00E000E100E00023037030
:1060A00043708370C370704701F095BB01F095BBDE
:1060B00001F095BB01F095BB000101F094BB01F02C
:1060C00095BB024B5868C0F30930704700ED00E003
:1060D00000F01F02012393404009044A403052F867
:1060E000202093430CBF01200020704700E100E016
:1060F000014B1860704700BF00EF00E04309012228
:1061000000F01F0002FA00F0024A603342F8230058
:10611000704700BF00E100E0024B5868C0F309007F
:10612000704700BF00ED00E000F01F020123934024
:106130004009044A803052F8202093430CBF0120CC
:106140000020704700E100E0014B1868704700BF75
:1061500000ED00E021F0604121F07F01014B084398
:106160009860704700ED00E0014A024BDA6070472A
:106170000400FA0500ED00E0014A024BDA607047C6
:106180000100FA0500ED00E0044B1A6909B1104363
:1061900001E022EA00001861704700BF00ED00E056
:1061A000012300F01F0003FA00F0044B5A6A09B102
:1061B000104301E022EA00005862704700ED00E061
:1061C000124B10B5DB68DB43C3F30223C3F10404B5
:1061D000A140FF2424FA03F31A4041EA02031A0102
:1061E000C0F30123C0F38110800000F1604000F58E
:1061F0006D408169DB009C4021EA0404846181696F
:1062000002FA03F30B43836110BD00BF00ED00E011
:106210000123C0F3832003FA00F0044B5B6A30EAE9
:1062200003030CBF01200020704700BF00ED00E019
:10623000044900F01F004B68012202FA00F00343FA
:106240004B60704700ED00E0054900F01F004B680F
:106250000138012202FA00F003434B60704700BF8F
:1062600000ED00E00123C0F3833003FA00F0044B9B
:106270005B6A30EA03030CBF01200020704700BFB7
:1062800000ED00E0C0F38142094B0AB9D86A7047BB
:10629000012A0BD1C0F301529B6AD00023FA00F00F
:1062A000022A14BF00F00F00C0B27047186B70478D
:1062B00000ED00E0034B10F4800F0CBF586B986B9F
:1062C000704700BF00ED00E008B501214FF080509D
:1062D00000F09AF9BDE8084000214FF0805000F02E
:1062E00093B9014B1860704720000E42014B1860B3
:1062F000704700BF10000E42034A136823F0E0030A
:1063000018431060704700BF00700040014B1860D8
:10631000704700BFA0000E42084A0129136823F00D
:10632000030340EA03001060054A136843F00403C6
:10633000136001D101F02ABA01F02ABA00700040BE
:1063400010ED00E0074B1A6842F004021A601A6868
:1063500042F002021A60044A136843F00403136017
:1063600001F014BA0070004010ED00E0034B5B68D0
:10637000034214BF01200020704700BF007000409E
:10638000024A136843EA80001060704700700040C2
:106390000C4B1A6842F001021A6059680A4A0A4016
:1063A0005A601A6822F0847222F480321A601A68E5
:1063B00022F480221A605A6822F4FE025A600022F7
:1063C0009A607047001002400000FFF80C4BB0F5D7
:1063D000803F1A6822F480321A601A6822F4802200
:1063E0001A6003D0B0F5802F04D070471A6842F4C9
:1063F000803202E01A6842F4A0221A60704700BF9F
:1064000000100240034A136823F0F80343EAC00077
:106410001060704700100240014B1860704700BFC9
:1064200000004242034A536823F47C131943084393
:106430005060704700100240014B1860704700BF69
:1064400060004242034A536823F00303184350603C
:10645000704700BF00100240024B586800F00C006B
:10646000704700BF00100240034A536823F0F00356
:1064700018435060704700BF00100240034A536841
:1064800023F4E06318435060704700BF00100240DF
:10649000034A536823F4605343EAC00050607047D6
:1064A00000100240044B1A7809B1104301E022EABF
:1064B00000001870704700BF09100240014B1860BF
:1064C000704700BFD8004242034A536823F4404358
:1064D00018435060704700BF00100240064B002276
:1064E00001281A701A7002D0042802D07047187060
:1064F000704705221A70704720100240014B186047
:10650000704700BF80044242024A136A1843106277
:10651000704700BF00100240014B1860704700BF79
:106520003C0442421C4A10B5536803F00C03042B90
:1065300001D0082B01D0194B0EE053685168C3F30A
:106540008343CC0303F1020302D55168890301D5CB
:10655000134900E011494B43036053681149C3F3E9
:106560000313CC5C0368E34043605468C4F3022423
:106570000C5D23FA04F484605468C4F3C2240C5DF7
:10658000E340C3605268C2F381320A44127CB3FB19
:10659000F2F3036110BD00BF0010024000127A0048
:1065A00000093D00447B0008044B5A6909B11043BF
:1065B00001E022EA00005861704700BF001002406D
:1065C000044B9A6909B1104301E022EA0000986186
:1065D000704700BF00100240044BDA6909B1104354
:1065E00001E022EA0000D861704700BF00100240BD
:1065F000044BDA6809B1104301E022EA0000D860D8
:10660000704700BF00100240044B1A6909B11043E3
:1066100001E022EA00001861704700BF001002404C
:10662000014B1860704700BF40044242014B1860A4
:10663000704700BF4C004242014B1870704700BFCA
:10664000071002404209012A074B01D11B6803E0F1
:10665000022A0CBF1B6A5B6A00F01F0023FA00F0DD
:1066600000F00100704700BF0010024007B5002392
:1066700001933120FFF7E6FF019B0133019318B925
:10668000019BB3F5A06FF4D13120FFF7DBFF0030A1
:1066900018BF012003B05DF804FB034A536A43F0BE
:1066A00080735362704700BF00100240034B9B6829
:1066B000184214BF01200020704700BF00100240A4
:1066C000014B1870704700BF0A10024008B5164B06
:1066D00098421CD003F5744398420CD0A3F578433C
:1066E000984220D101214FF48040FFF78DFF002117
:1066F0004FF4804013E001214FF48050FFF778FF02
:10670000BDE8084000214FF48050FFF771BF012120
:106710004FF40040FFF778FF00214FF40040BDE840
:106720000840FFF771BF08BD003C004003880A889D
:1067300010B503F441544B8813438A881343CA8825
:1067400013430A8913434A8913438A891343CA8925
:10675000134323439BB20380838B23F400631B0406
:106760001B0C83830B8A038210BD838BF0B523F44B
:106770007B6323F00F031B041B0C8383022303841E
:106780000B89868B022B87B005460C46B6B222D009
:106790008B8801A8002B14BF02270127FFF7C2FE38
:1067A000E3882189B3F5007F019B4FF00A0202FBC9
:1067B00003F21ABF7B014B430B02B2FBF3F3053329
:1067C0000A229BB2B3FBF2F303F001021202C3F3FD
:1067D0004F0392B200E00022991E89B2FE2924BF25
:1067E000002202231343E28813439BB22B842388A5
:1067F000A2881E43638846F40066334313436289CC
:1068000013439BB2AB8307B0F0BD002303804380EA
:106810008380C380038143818381C38107230382F3
:10682000704700230222038043808380C38002815B
:1068300043817047038819B19BB243F0400303E0E2
:1068400023F040031B041B0C03807047838B19B19A
:106850009BB243F4806303E023F480631B041B0CAE
:10686000838370470123090903FA01F1838889B200
:106870009BB20AB1194301E023EA0101818070470C
:1068800083889BB20AB1194301E023EA01018180A8
:10689000704781817047808980B270474FF6FF63EF
:1068A000994203880BBF23F480739BB21B0443F40B
:1068B000807308BF1B0C03807047838819B19BB29B
:1068C00043F0040303E023F004031B041B0C838048
:1068D0007047038823F400631B041B0C03800388A8
:1068E0009BB219430180704703889BB243F48053E5
:1068F00003807047038819B19BB243F4005303E04F
:1069000023F400531B041B0C03807047012914BFA0
:10691000008B808A80B27047008A80B270470388FB
:10692000B1F5804F15BF23F480439BB21B0443F4A1
:10693000804318BF1B0C038070470389194214BFA2
:10694000012000207047C94389B20181704710B50A
:1069500084880389012201F00F009BB202FA00F043
:106960001840A4B205D009098A40144214BF01207E
:10697000002010BD01F00F01012303FA01F1C9430A
:1069800089B20181704700BF044B04281A680CBF0C
:1069900042F0040222F004021A60704710E000E0A6
:1069A000014B5860704700BF10E000E00128084B21
:1069B00003D11A6842F0010204E0023004D11A68DF
:1069C00022F001021A60704700229A60704700BFEF
:1069D00010E000E0044B1A6810B142F0020201E03E
:1069E00022F002021A60704710E000E0014B986844
:1069F000704700BF10E000E0C308022B044B0CBF3F
:106A00001B68DB6823FA00F000F00100704700BF4C
:106A100010E000E030B5048C24F001042404240CC0
:106A20000484048B058CA4B2ADB224F0F304224399
:106A300025F0020542EA031345F001059AB2294305
:106A40000283018430BD30B5048C24F0100424048A
:106A5000240C0484058B048C25F44075A4B22D0508
:106A60002D0D24F0200444F0100445EA022242EAED
:106A7000033344EA01119BB28CB20383048430BD1A
:106A800008B5314B98423DD011D8A3F50063984228
:106A900027D003F5806398422DD0B0F1804F52D1BA
:106AA00001210846FFF7B0FD002101201FE0274B20
:106AB000984235D004D8A3F58063984229D008BD08
:106AC000234B984204D003F5006398422FD008BDB1
:106AD00001214FF40060FFF78BFD00214FF40060AF
:106AE0002DE001210220FFF78FFD00210220BDE8EB
:106AF0000840FFF789BD01210420FFF785FD002133
:106B00000420F4E701210820FFF77EFD0021082082
:106B1000EDE701211020FFF777FD00211020E6E7C7
:106B200001212020FFF770FD00212020DFE7012157
:106B30004FF40050FFF75CFD00214FF40050BDE81A
:106B40000840FFF755BD08BD000C00400014004090
:106B5000002C01400388CA8803F08F030380038858
:106B60009BB213434A8813439BB203808B8883856F
:106B70000B88038501238382044B984203D003F5DD
:106B80000063984201D10B7A03867047002C0140C4
:106B9000038C70B523F001031B041B0C0384038CCE
:106BA0008488028B0E8822F070021204120C23F0EB
:106BB000020516430B894A882D041343CA882D0CFD
:106BC00082860F4A2B439042A4B29BB203D002F5B7
:106BD000006290420FD147F6FF454A8923F008032F
:106BE00013438A8823F00403254013438C89CA8900
:106BF00014432C43A4B284800683038470BD00BF79
:106C0000002C0140038C30B523F010031B041B0C37
:106C10000384038C8588028B0C8822F4E0421204E2
:106C2000120C42EA042223F0200394B21B040A89C6
:106C30001B0C43EA02134A88ADB243EA0213CA8826
:106C40009BB20287104A904203D002F50062904244
:106C500016D123F080034A899BB243EA02124FF611
:106C6000BF7313408A8843EA021347F2FF322A4077
:106C70008D899BB242EA8502CD8942EA8505ADB293
:106C800085800483038430BD002C0140038C70B5E3
:106C900023F480731B041B0C0384038C8488828B75
:106CA0000E8822F070021204120C23F400731643B3
:106CB0001B040A891B0C43EA02234A88A4B243EA54
:106CC0000223CA889BB28287104A904203D002F501
:106CD0000062904216D123F400634A8944F6FF759E
:106CE0009BB243EA02224FF6FF3325408C891340C2
:106CF00045EA04158A88CC8943EA022345EA04144C
:106D00009BB2A4B284808683038470BD002C0140B2
:106D1000038C30B523F480531B041B0C0384038CB9
:106D20008488828B0D8822F4E0421204120C23F432
:106D3000005342EA05221B040D891B0C43EA05336C
:106D40004D88A4B243EA0533CD8892B2A0F84050F2
:106D5000084D9BB2A84203D005F50065A84205D1B5
:106D60008989C4F30D0444EA8114A4B28480828327
:106D7000038430BD002C01400A884B8813438A8865
:106D80001343CA8813430A8913434A8913438A89E0
:106D900013439BB2A0F8443070474FF6FF738380D3
:106DA00000230380C3804380037270470023038065
:106DB00043808380C380038143818381C381704783
:106DC00000230122038043808280C38003817047B7
:106DD0000023038043808380C380038143818381B8
:106DE0007047038819B19BB243F0010303E023F01D
:106DF00001039B059B0D03807047B0F8443029B117
:106E00006FEA43436FEA53439BB201E0C3F30E03BF
:106E1000A0F844307047818270470A43A0F84820A8
:106E2000704783899BB20AB1194301E023EA01014B
:106E300081817047FFF7F5BF038923F007031B0427
:106E40001B0C03817047038923F070031B041B0C88
:106E50001943018103899BB243F007030381704703
:106E600038B50D46602D114604464FF0010202D19F
:106E7000FFF7E9FD01E0FFF7CDFD218921F0700169
:106E80000904090C2943218123899BB243F007039C
:106E9000238138BD10B5048942EA0323E4B22343B9
:106EA0009BB21943018110BD10B5FFF7F3FF0389B1
:106EB00023F077031B041B0C43F07703038110BD01
:106EC00010B5FFF7E7FF03899BB243F480430381CA
:106ED00010BD018582827047038823F070039B05F3
:106EE0009B0D194301807047038923F070031B0435
:106EF0001B0C19430181704770B50689048B058C02
:106F000024F44074ADB224F0030425F0220526F0E9
:106F1000070624042A433604240C360C44F48074F7
:106F200042EA0313314344F001049DB2018104831A
:106F3000058470BD038B23F070031B041B0C1943E5
:106F400001837047038B23F4E0431B041B0C43EACB
:106F5000012189B201837047838B23F070031B04E6
:106F60001B0C194381837047838B23F4E0431B047C
:106F70001B0C43EA012189B281837047038819B150
:106F80009BB243F0800303E023F080039B059B0D3D
:106F900003807047838819B19BB243F0040303E078
:106FA00023F004031B041B0C83807047838819B1F2
:106FB0009BB243F0080303E023F008031B041B0CFF
:106FC00083807047838819B19BB243F0010303E0CB
:106FD00023F001031B041B0C83807047038B23F0F9
:106FE00008031B041B0C194301837047038B23F414
:106FF00000631B041B0C43EA012189B20183704723
:10700000838B23F008031B041B0C194381837047F7
:10701000838B23F400631B041B0C43EA012189B218
:1070200081837047038B23F004031B041B0C19435B
:1070300001837047038B23F480631B041B0C43EA1A
:10704000012189B201837047838B23F004031B0461
:107050001B0C194381837047838B23F480631B04CB
:107060001B0C43EA012189B281837047038B23F013
:1070700080031B041B0C194301837047038BC3F36C
:107080000E0343EA012189B201837047838B23F009
:1070900080031B041B0C194381837047838BC3F34C
:1070A0000E0343EA012189B281837047038C23F0E8
:1070B00002031B041B0C194301847047038C23F04B
:1070C00008031B041B0C194301847047038C23F035
:1070D00020031B041B0C43EA011189B20184704791
:1070E000038C23F080031B041B0C43EA011189B2BB
:1070F00001847047038C23F400731B041B0C43EAC8
:10710000012189B201847047038C23F400631B04BE
:107110001B0C43EA012189B201847047038C23F4DC
:1071200000531B041B0C43EA013189B201847047F0
:1071300030B5048C8A40A5B201248C4025EA0404B1
:107140000484038C13439BB2038430BD30B5048C9C
:107150008A40A5B204248C4025EA04040484038CEC
:1071600013439BB2038430BD038C10B59CB2012342
:107170008B4024EA0303038421F0080318303BB951
:107180004FF68F73490844582340435043580AE050
:1071900048F6FF730439C1F34E01445812022340EC
:1071A0004350435892B21A43425010BD038819B15C
:1071B0009BB243F0020303E023F002039B059B0D07
:1071C00003807047038819B19BB243F0040303E0C6
:1071D00023F004039B059B0D03807047838819B13E
:1071E0009BB243F0800303E023F080031B041B0CDD
:1071F00083807047038823F008039B059B0D038061
:1072000003889BB2194301807047838823F0700381
:107210001B041B0C838083889BB2194381807047B9
:10722000038923F007031B041B0C038103899BB212
:10723000194301817047038923F080031B041B0C51
:10724000038103899BB21943018170478184704790
:1072500081857047818670470187704781877047B5
:10726000A0F840107047038B23F00C031B041B0C89
:107270000383038B9BB2194301837047038B23F471
:1072800040631B041B0C0383038B9BB243EA012165
:1072900089B201837047F8B50C464988A288002955
:1072A000B4F800E00CBF02260026012A0CBF02271A
:1072B00001272389BEF1000F0ED1FFF7ABFBE18858
:1072C000FFF7D1FF314623893A46FFF7BCFBE1883F
:1072D000BDE8F840FFF7D2BFFFF7B5FBE188FFF745
:1072E000CDFF314623893A46FFF794FBE188BDE89C
:1072F000F840FFF7B8BF838B23F00C031B041B0C73
:107300008383838B9BB2194381837047838B23F4E0
:1073100040631B041B0C8383838B9BB243EA0121D4
:1073200089B281837047F8B50E880D460B898A882B
:10733000498836B9FFF76EFBE988BDE8F840FFF7EA
:1073400092BF042E06D1FFF77EFBE988BDE8F84026
:10735000FFF794BF082EB5F806E0058C1CD125F484
:1073600080752D042D0C0584878B068CBFB227F009
:10737000F30747EA0313B6B29BB2134326F4007235
:1073800042EA0126B6B246F48076838371460684CB
:10739000BDE8F840FFF7AFBF25F480552D042D0C54
:1073A0000584868B078C26F440752D05BFB22D0D04
:1073B00045EA022527F4005242EA013245EA033346
:1073C00092B29BB242F4805283837146BDE8F8408A
:1073D0000284FFF79BBF0388DBB2038003889BB264
:1073E000194301807047808E80B27047008F80B251
:1073F0007047808F80B27047B0F8400080B270470D
:10740000808C80B27047008D80B27047038A194229
:1074100014BF012000207047C94389B20182704720
:10742000038A828911EA030092B203D0114214BF89
:10743000012000207047C94389B20182704700BF14
:1074400008B5244B98422ED008D8A3F50063984283
:1074500017D003F5806398421CD008BD1E4B98429C
:107460002AD003F56843984232D101214FF480407D
:10747000FFF7BEF8BDE8084000214FF48040FFF759
:10748000B7B801214FF40030FFF7BEF800214FF4E8
:10749000003019E001214FF48020FFF7B5F80021FA
:1074A0004FF4802010E001214FF40020FFF7ACF8EA
:1074B00000214FF4002007E001214FF48010FFF776
:1074C000A3F800214FF48010BDE80840FFF79CB8F6
:1074D00008BD00BF004C00400050004030B50D46D4
:1074E0000446038ACA889BB223F4405313430382A1
:1074F000828989882B8992B20B43698922F4B05220
:107500000B4322F00C0213439BB28381838AAA8926
:107510009BB223F4407387B01343838201A8FFF723
:1075200001F8039B049A0E498C4218BF1A4619238E
:1075300053432A689200B3FBF2F26423B2FBF3F0E8
:107540000001010903FB112212013232B2FBF3F3F5
:1075500003F00F0303439BB2238107B030BD00BF8C
:10756000003801404FF4165303600C22002383803F
:10757000C38003814281838170474B8810B50C889A
:10758000028A23438C88C98892B223430B4322F496
:10759000706213439BB2038210BD002303804380BB
:1075A0008380C3807047838919B19BB243F4005331
:1075B00003E023F400531B041B0C83817047012359
:1075C00010B5C1F342149C4201F01F0103FA01F10E
:1075D00001D10C3003E0022C0CBF103014300368D2
:1075E0000AB1194301E023EA0101016010BD838A59
:1075F0009BB20AB1194301E023EA0101818270477D
:10760000038A23F00F031B041B0C0382038A9BB223
:10761000194301827047838923F400631B041B0C08
:10762000838183899BB2194381817047838919B112
:107630009BB243F0020303E023F002031B041B0C84
:1076400083817047038A23F020031B041B0C0382F1
:10765000038A9BB2194301827047038A19B19BB216
:1076600043F4804303E023F480431B041B0C038298
:107670007047C1F30801818070478088C0F308001B
:10768000704783899BB243F0010383817047038B6A
:10769000DBB20383038B9BB243EA01210183704772
:1076A000038B03F47F430383038B9BB21943018352
:1076B0007047838A19B19BB243F0200303E023F0A3
:1076C00020031B041B0C83827047838A19B19BB271
:1076D00043F0100303E023F010031B041B0C838210
:1076E0007047838A19B19BB243F0080303E023F08B
:1076F00008031B041B0C83827047838A23F0040356
:107700001B041B0C8382838A9BB2194381827047BE
:10771000838A19B19BB243F0020303E023F0020312
:107720001B041B0C838270470388194214BF01207D
:1077300000207047C94389B201807047012310B50A
:10774000C1F3421401F01F029C4203FA02F201D17C
:10775000838903E0022C0CBF038A838A9BB2134007
:10776000028892B243B10123090A03FA01F10A42E5
:1077700014BF1846002010BD184610BD090A012389
:1077800003FA01F1C94389B20180704730BF7047E5
:1077900020BF704740BF7047BFF36F8F7047BFF384
:1077A0004F8F7047BFF35F8F704701DF7047EFF374
:1077B0001480704780F31488BFF36F8F7047EFF326
:1077C0000980704780F309887047EFF3088070479D
:1077D00080F30888704772B6704762B6704771B61A
:1077E000704761B6704780F311887047EFF31280DD
:1077F000704740BA704700BA70470000684620F0F2
:1078000007018D4601B50C4A0C4B0D498B4204D241
:1078100052F8040F43F8040BF8E70A4B0A4A002118
:10782000934202D243F8041BFAE700F00FF8BDE8D8
:1078300001408546704700BF6C7B000800000020B7
:10784000F4020020F40200201014002010B5FCF710
:10785000E8FF0020FDF78AF80120FBF79BFE0020DF
:10786000FDF75CF90220FDF759F90120FDF756F903
:10787000FDF748FB1048114A0023195CD15401332D
:10788000182BFAD10E4B08221A700324012107206D
:10789000FCF710FC3220FDF736F800210720FCF73A
:1078A00009FC013C3220FDF72EF814F0FF04EDD165
:1078B000FCF762F8FEE700BF0E010020170400206D
:1078C0008808002083238821A31FDD1D341C9B1AF8
:1078D0001C19B3175F161E15EE13D012C111C41078
:1078E000D10FEE0E1A0E4D0D8E0CD90B2F0B8F0AE9
:1078F000F7096809E0086108E90777070C07A60699
:107900004706ED0597054705FB04B40470043004F1
:10791000F403BB03860352032303F602CC02A30243
:107920007E025A0238021802FA01DE010000EE025D
:10793000C410D10FEE0E1A0E4D0D8E0CD90B2F0B5D
:107940008F0AF7096809E0086108E90777070C075B
:10795000A6064706ED0597054705FB04B404700429
:107960008403D4306A18070081001401800081006C
:10797000130180008100120180008100110180004C
:10798000810010018000000008009A008100E800DA
:107990002203210200010000100015017202720290
:1079A000720200010000040099018000990180002A
:1079B000990180009901800000000800810068049E
:1079C00021040001000001009A006A042A047404E2
:1079D00034047E043E0488044804920452049C0447
:1079E0005C04A6046604B0047004000100000400F6
:1079F000810074043404880448040001000010006D
:107A00009C00520400010000090000040E028000E6
:107A10008201820182010004000008009400A50098
:107A200017021402A5001702140200010000100042
:107A30009A00AA00EA008000AA00EA000001000003
:107A400010009A00AA00EA000001000010001A01CC
:107A50006A010001000010008100E1009A00E100CD
:107A6000A1000001000014009A006104210400013B
:107A70000000140090006C041E04000010001701A8
:107A800023026302230263020001000014001701B5
:107A9000B0006102000100002000090121041E0263
:107AA0000001000010009700B200F2008000B20058
:107AB000F2000001000014000801240162041E0409
:107AC0001E020001000014009000A8011E01E80140
:107AD000AC00EC00000100001700100180009000D5
:107AE000900010011001970094009700940010047A
:107AF000000100000F0008010D0111019401800038
:107B0000110114041E0100011401000194009400ED
:107B10001401000114011904000200000800100102
:107B20000F010D010B010901080106010404000009
:107B3000080008010A010C010D010F0111011301D8
:107B4000140100000000000001020304010203040C
:087B50000607080902040608FB
:0C7B58000DC0A0E1F8DF2DE904B04CE204
:0C7B64000DC0A0E1F8DF2DE904B04CE2F8
:107B700002000101010102000200010101010200F5
:107B800001010101020002000101020002000101E5
:107B900001010101010102000200020002000200D5
:107BA00002000102000200020002000200020002C4
:107BB00000020002000200020002000200020002B5
:107BC00000010102000200010200010001000100A9
:107BD00000FD01FE00FE00FF000300FF00030100A6
:107BE000009632FA32FA00FF00030002007F007FA5
:107BF00000FF01000100010001000001000700FF7B
:107C0000007F00FF007F0100010001000100010072
:107C1000010001000100010001000100010001005C
:107C2000010001000100010001000100010001004C
:107C3000010001000100010001000100010001003C
:107C4000010001000100010001000100010001002C
:107C5000010001000100010001000100010001001C
:107C600001000100010001000100010000FF00FF10
:107C700000FF00FF0100010001000100010000738E
:107C800013C801000000FF0300503CBEFF030224A4
:107C900024000000000000000C00000040420F0023
:107CA00000E1000040420F0070300A036400000150
:107CB00002030405060708090A0B0C0D0E0F10112C
:107CC00012131415161718191A1B1C1D1E1F20211C
:107CD00022232425262728292A2A2B2C2D2E2F3013
:107CE0003132333435363738393A3B3C3D3E3F400C
:107CF0004142434445464748494A4B4C4D4E4F50FC
:107D00005152535455565758595A5B5C5D5E5F60EB
:107D10006162636465666768696A6B6C6D6E6F70DB
:107D20007172737475767778797A7B7C7D7E7F7FCC
:107D3000808182838485868788898A8B8C8D8E8FCB
:107D4000909192939495969798999A9B9C9D9E9FBB
:107D5000A0A1A2A3A4A5A6A7A8A9AAABACADAEAFAB
:107D6000B0B1B2B3B4B5B6B7B8B9BABBBCBDBEBF9B
:107D7000C0C1C2C3C4C5C6C7C8C9CACBCCCDCECF8B
:107D8000D0D1D2D3D3D4D5D6D7D8D9DADBDCDDDE87
:107D9000DFE0E1E2E3E4E5E6E7E8E9EAEBECEDEE7B
:107DA000EFF0F1F2F3F4F5F6F7F8F9FAFBFC000066
:107DB0000A0000000B0000000C0000000D00000095
:107DC00000000000010000000200000003000000AD
:107DD000040000000500000006000000070000008D
:107DE0000E0000000F000000080000000900000065
:107DF000307B00081C7B0008F47A0008D87A000861
:107E0000C67A0008B67A0008A47A0008987A0008B2
:107E10008C7A00087C7A0008727A0008667A00087A
:107E2000567A00084C7A0008407A00082E7A00083A
:107E30001A7A0008087A0008FE790008EE7900082E
:107E4000C6790008BA790008A67900089879000870
:107E500088790008667900080100E8FFFFEAFFFF63
:047E6000ECFFFF0034
:04000005080077FD7B
:00000001FF
